{
  "contractName": "PasswordManager",
  "abi": [
    {
      "inputs": [],
      "stateMutability": "nonpayable",
      "type": "constructor"
    },
    {
      "inputs": [
        {
          "internalType": "string",
          "name": "_secretKey",
          "type": "string"
        }
      ],
      "name": "storeSecretKey",
      "outputs": [],
      "stateMutability": "nonpayable",
      "type": "function"
    },
    {
      "inputs": [
        {
          "internalType": "string",
          "name": "_platform",
          "type": "string"
        },
        {
          "internalType": "string",
          "name": "_password",
          "type": "string"
        }
      ],
      "name": "savePassword",
      "outputs": [],
      "stateMutability": "nonpayable",
      "type": "function"
    },
    {
      "inputs": [
        {
          "internalType": "string",
          "name": "a",
          "type": "string"
        },
        {
          "internalType": "string",
          "name": "b",
          "type": "string"
        }
      ],
      "name": "compareKeys",
      "outputs": [
        {
          "internalType": "bool",
          "name": "",
          "type": "bool"
        }
      ],
      "stateMutability": "pure",
      "type": "function",
      "constant": true
    },
    {
      "inputs": [
        {
          "internalType": "string",
          "name": "_secretKey",
          "type": "string"
        }
      ],
      "name": "getPasswords",
      "outputs": [
        {
          "components": [
            {
              "internalType": "string",
              "name": "platform",
              "type": "string"
            },
            {
              "internalType": "string",
              "name": "password",
              "type": "string"
            }
          ],
          "internalType": "struct PasswordManager.Pass[]",
          "name": "",
          "type": "tuple[]"
        }
      ],
      "stateMutability": "view",
      "type": "function",
      "constant": true
    },
    {
      "inputs": [],
      "name": "test",
      "outputs": [
        {
          "internalType": "string",
          "name": "",
          "type": "string"
        }
      ],
      "stateMutability": "pure",
      "type": "function",
      "constant": true
    }
  ],
  "bytecode": "0x608060405234801561001057600080fd5b50610b9c806100206000396000f3fe608060405234801561001057600080fd5b50600436106100575760003560e01c80630ef15c951461005c57806340c292501461007857806375a7868b146100a857806398f9c7c5146100c4578063f8a8fd6d146100f4575b600080fd5b610076600480360381019061007191906106a3565b610112565b005b610092600480360381019061008d91906106e4565b610169565b60405161009f9190610948565b60405180910390f35b6100c260048036038101906100bd91906106e4565b6101c2565b005b6100de60048036038101906100d991906106a3565b610284565b6040516100eb9190610926565b60405180910390f35b6100fc61055b565b6040516101099190610963565b60405180910390f35b80600160003373ffffffffffffffffffffffffffffffffffffffff1673ffffffffffffffffffffffffffffffffffffffff1681526020019081526020016000209080519060200190610165929190610598565b5050565b60008160405160200161017c919061090f565b60405160208183030381529060405280519060200120836040516020016101a3919061090f565b6040516020818303038152906040528051906020012014905092915050565b600060405180604001604052808481526020018381525090506000803373ffffffffffffffffffffffffffffffffffffffff1673ffffffffffffffffffffffffffffffffffffffff168152602001908152602001600020819080600181540180825580915050600190039060005260206000209060020201600090919091909150600082015181600001908051906020019061025f929190610598565b50602082015181600101908051906020019061027c929190610598565b505050505050565b60606000600160003373ffffffffffffffffffffffffffffffffffffffff1673ffffffffffffffffffffffffffffffffffffffff16815260200190815260200160002080546102d290610ac5565b80601f01602080910402602001604051908101604052809291908181526020018280546102fe90610ac5565b801561034b5780601f106103205761010080835404028352916020019161034b565b820191906000526020600020905b81548152906001019060200180831161032e57829003601f168201915b5050505050905061035c8184610169565b61039b576040517f08c379a000000000000000000000000000000000000000000000000000000000815260040161039290610985565b60405180910390fd5b6000803373ffffffffffffffffffffffffffffffffffffffff1673ffffffffffffffffffffffffffffffffffffffff168152602001908152602001600020805480602002602001604051908101604052809291908181526020016000905b8282101561054f578382906000526020600020906002020160405180604001604052908160008201805461042c90610ac5565b80601f016020809104026020016040519081016040528092919081815260200182805461045890610ac5565b80156104a55780601f1061047a576101008083540402835291602001916104a5565b820191906000526020600020905b81548152906001019060200180831161048857829003601f168201915b505050505081526020016001820180546104be90610ac5565b80601f01602080910402602001604051908101604052809291908181526020018280546104ea90610ac5565b80156105375780601f1061050c57610100808354040283529160200191610537565b820191906000526020600020905b81548152906001019060200180831161051a57829003601f168201915b505050505081525050815260200190600101906103f9565b50505050915050919050565b60606040518060400160405280601981526020017f70617373776f7264206d616e6167657220636f6e747261637400000000000000815250905090565b8280546105a490610ac5565b90600052602060002090601f0160209004810192826105c6576000855561060d565b82601f106105df57805160ff191683800117855561060d565b8280016001018555821561060d579182015b8281111561060c5782518255916020019190600101906105f1565b5b50905061061a919061061e565b5090565b5b8082111561063757600081600090555060010161061f565b5090565b600061064e610649846109d6565b6109a5565b90508281526020810184848401111561066657600080fd5b610671848285610a83565b509392505050565b600082601f83011261068a57600080fd5b813561069a84826020860161063b565b91505092915050565b6000602082840312156106b557600080fd5b600082013567ffffffffffffffff8111156106cf57600080fd5b6106db84828501610679565b91505092915050565b600080604083850312156106f757600080fd5b600083013567ffffffffffffffff81111561071157600080fd5b61071d85828601610679565b925050602083013567ffffffffffffffff81111561073a57600080fd5b61074685828601610679565b9150509250929050565b600061075c83836108cb565b905092915050565b600061076f82610a16565b6107798185610a39565b93508360208202850161078b85610a06565b8060005b858110156107c757848403895281516107a88582610750565b94506107b383610a2c565b925060208a0199505060018101905061078f565b50829750879550505050505092915050565b6107e281610a77565b82525050565b60006107f382610a21565b6107fd8185610a4a565b935061080d818560208601610a92565b61081681610b55565b840191505092915050565b600061082c82610a21565b6108368185610a5b565b9350610846818560208601610a92565b61084f81610b55565b840191505092915050565b600061086582610a21565b61086f8185610a6c565b935061087f818560208601610a92565b80840191505092915050565b6000610898601783610a5b565b91507f496e76616c696420736563726574206b65792073656e740000000000000000006000830152602082019050919050565b600060408301600083015184820360008601526108e882826107e8565b9150506020830151848203602086015261090282826107e8565b9150508091505092915050565b600061091b828461085a565b915081905092915050565b600060208201905081810360008301526109408184610764565b905092915050565b600060208201905061095d60008301846107d9565b92915050565b6000602082019050818103600083015261097d8184610821565b905092915050565b6000602082019050818103600083015261099e8161088b565b9050919050565b6000604051905081810181811067ffffffffffffffff821117156109cc576109cb610b26565b5b8060405250919050565b600067ffffffffffffffff8211156109f1576109f0610b26565b5b601f19601f8301169050602081019050919050565b6000819050602082019050919050565b600081519050919050565b600081519050919050565b6000602082019050919050565b600082825260208201905092915050565b600082825260208201905092915050565b600082825260208201905092915050565b600081905092915050565b60008115159050919050565b82818337600083830152505050565b60005b83811015610ab0578082015181840152602081019050610a95565b83811115610abf576000848401525b50505050565b60006002820490506001821680610add57607f821691505b60208210811415610af157610af0610af7565b5b50919050565b7f4e487b7100000000000000000000000000000000000000000000000000000000600052602260045260246000fd5b7f4e487b7100000000000000000000000000000000000000000000000000000000600052604160045260246000fd5b6000601f19601f830116905091905056fea2646970667358221220e7bbca1fd462491c0a2d72ce14c4492efb83addf5f507f7c24ce12ecbe0b923a64736f6c63430008000033",
  "immutableReferences": {},
  "source": "// SPDX-License-Identifier: MIT\r\npragma solidity ^0.8.0;\r\n\r\ncontract PasswordManager {\r\n\r\n  struct Pass {\r\n    string platform;\r\n    string password;\r\n  }\r\n  mapping (address => Pass[]) private userPasswords;\r\n  mapping (address => string) private userSecretKey;\r\n\r\n  constructor() {}\r\n\r\n  function storeSecretKey(string memory _secretKey) \r\n    public \r\n  {\r\n    userSecretKey[msg.sender] = _secretKey;\r\n  }\r\n\r\n  function savePassword(string memory _platform, string memory _password) \r\n    public \r\n  {\r\n    Pass memory newPass = Pass(_platform, _password);\r\n    userPasswords[msg.sender].push(newPass);\r\n  }\r\n  \r\n  function compareKeys(string memory a, string memory b) \r\n    public \r\n    pure \r\n    returns(bool) \r\n  {\r\n    return (keccak256(abi.encodePacked((a))) == keccak256(abi.encodePacked((b))));\r\n  }\r\n\r\n  function getPasswords(string memory _secretKey) \r\n    public \r\n    view \r\n    returns(Pass[] memory) \r\n  {\r\n    string memory storedKey = userSecretKey[msg.sender];\r\n    \r\n    require(\r\n      compareKeys(storedKey, _secretKey),\r\n      \"Invalid secret key sent\"\r\n    );\r\n    return userPasswords[msg.sender];\r\n  }\r\n\r\n  function test() \r\n    public \r\n    pure \r\n    returns(string memory) \r\n  {\r\n    return \"password manager contract\";\r\n  }\r\n\r\n}",
  "sourcePath": "C:\\Users\\Oyeto\\Documents\\programming\\Projects\\web-apps\\Password manager\\contracts\\PasswordManager.sol",
  "compiler": {
    "name": "solc",
    "version": "0.8.0+commit.c7dfd78e.Emscripten.clang"
  },
  "schemaVersion": "3.4.3",
  "updatedAt": "2021-11-01T18:37:59.436Z",
  "networkType": "ethereum",
  "devdoc": {
    "kind": "dev",
    "methods": {},
    "version": 1
  },
  "userdoc": {
    "kind": "user",
    "methods": {},
    "version": 1
  }
}